:100000000C94B5000C94D2000C94D2000C942801EE
:100010000C94D2000C94D4000C94D2000C942605BD
:100020000C94D2000C94D2000C94D2000C94D20008
:100030000C94D2000C94D2000C94D2000C94D200F8
:100040000C94D2000C94D2000C94D2000C94D200E8
:100050000C94D2000C94D2000C94D2000C94D200D8
:100060000C94D2000C94D2006E616E00696E660032
:1000700000407A10F35A00A0724E18090010A5D45F
:10008000E80000E87648170000E40B54020000CABC
:100090009A3B000000E1F505000080969800000002
:1000A00040420F000000A086010000001027000061
:1000B0000000E803000000006400000000000A00E7
:1000C000000000000100000000002C76D888DC67EA
:1000D0004F0823DFC1DFAE59E1B1B796E5E3E45342
:1000E000C63AE651997696E8E6C28426EB898C9B5F
:1000F00062ED407C6FFCEFBC9C9F40F2BAA56FA5FF
:10010000F490055A2AF75C936B6CF9676DC11BFC80
:10011000E0E40D47FEF520E6B500D0ED902E03009B
:10012000943577050080841E080000204E0A0000E8
:1001300000C80C333333330F986E12831141EF8DA7
:100140002114893BE65516CFFEE6DB18D1844B38E7
:100150001BF77C1D901DA4BBE424203284725E2218
:100160008100C9F124ECA1E53D2711241FBECFEF8A
:10017000D8E0DEBFCDBF11E0A0E0B1E0EEE0FDE1F0
:1001800002C005900D92A436B107D9F713E0A4E69A
:10019000B1E001C01D92AF30B107E1F70E94B0019C
:1001A0000C94850E0C9400001F920F920FB60F92C4
:1001B00011242F933F934F935F936F937F938F936C
:1001C0009F93AF93BF93EF93FF934B9B05C01999F8
:1001D00018C019992CC004C04B9929C0199B0FC095
:1001E00060918401709185018091860190918701D1
:1001F00020E030E040E85FE30E945F0A10C01999F8
:1002000016C0609184017091850180918601909162
:10021000870120E030E040E85FE30E94600A6093DD
:100220008401709385018093860190938701FF91EB
:10023000EF91BF91AF919F918F917F916F915F915E
:100240004F913F912F910F900FBE0F901F901895D7
:100250001F920F920FB60F9211242F933F934F933B
:100260005F936F937F938F939F93AF93BF93EF931E
:10027000FF93199B05C04B9918C04B992CC004C023
:10028000199929C04B9B0FC0609184017091850121
:10029000809186019091870120E030E040E85FE3A3
:1002A0000E94600A10C04B9916C060918401709141
:1002B0008501809186019091870120E030E040E83F
:1002C0005FE30E945F0A60938401709385018093CD
:1002D000860190938701FF91EF91BF91AF919F911C
:1002E0008F917F916F915F914F913F912F910F90DF
:1002F0000FBE0F901F90189584B5836884BD85B597
:10030000816085BD16BC17BC569A579A08955398BC
:1003100021985B9A299AE8E6F0E0808185608083E5
:10032000EBE6F0E0808182608083EDE6F0E08081A2
:10033000886080830895E0EBF0E0808182608083B4
:10034000E1EBF0E0808184608083E0E7F0E0808191
:10035000826080831092B2008AEF8093B300089588
:100360000E947C010E9487011092C50087E680935D
:10037000C40088E18093C10086E08093C2000E949F
:100380009B017894FFCF60918401709185018091E9
:1003900086019091870125E63AEA4AEA50E40E94F4
:1003A000C80A609398017093990180939A01909381
:1003B0009B0108951092C50087E68093C40088E1F0
:1003C0008093C10086E08093C2000895282F809119
:1003D000900190919101009739F48091C00085FFC0
:1003E000FCCF2093C6000895019729F580919201D2
:1003F000843618F48F5F80939201909193018091DD
:100400009201981781F0E92FF0E0E455FE4F8081CA
:100410008093C600892F8F5F809393018F3F39F4BB
:100420001092930104C010929301109292011092C5
:100430009101109290010895E0919201F0E0E4554D
:10044000FE4F80830E94E601809192018F3F11F45C
:1004500010929201089560918401709185018091BC
:100460008601909187012091880130918901409106
:100470008A0150918B010E945F0A20E030E046E93A
:1004800054E40E94C80A20E030E046E954E40E94A7
:10049000280C60938C0170938D0180938E01909352
:1004A0008F0108951F93CF93DF9381E090E09093A5
:1004B00091018093900110E0CBEAD2E006C0A555EF
:1004C000BD4F8C910E941C021F5FFE010190002015
:1004D000E9F73197EB5AF240A12FB0E0AE17BF0712
:1004E00070F38091C00085FF02C01092C600DF91BA
:1004F000CF911F910895EF92FF920F931F93CF9387
:10050000DF93CDB7DEB760970FB6F894DEBF0FBEAE
:10051000CDBFADB7BEB71196EBEAF2E0FA83E9833F
:10052000E0E0F1E01396FC93EE93129714966D932E
:100530007D938D939C93179718962D933D934D9390
:100540005C931B971C96ED92FD920D931C931F9745
:100550000E94030EEDB7FEB770960FB6F894FEBF7B
:100560000FBEEDBF0E945202DF91CF911F910F91FC
:10057000FF90EF900895EF92FF920F931F935F9A71
:1005800020E030E04FE753E40E94280C2AE037EDEA
:1005900043E25CE30E94280C0E945C0B7B018C010F
:1005A00060939401709395018093960190939701C5
:1005B00020E030E04FE753E40E94C80A20E030E03A
:1005C00048EC52E40E94280C6093A8017093A901A2
:1005D0008093AA019093AB01C801B70120E030E0FD
:1005E0004FE753E40E94240C18162CF480E090E0AE
:1005F000AFE7B3E41DC0C801B70120E030E040E040
:1006000050E00E94C40A88232CF480E090E0A0E02F
:10061000B0E00EC0C801B70120E030E040E85FE381
:100620000E94C40A882364F480E090E0A0E8BFE35D
:100630008093940190939501A0939601B0939701B4
:10064000609194017091950180919601909197012C
:100650000E94300B67BD1F910F91FF90EF9008959E
:10066000EF92FF920F931F935F9820E030E04FE7E7
:1006700053E40E94280C2AE037ED43E25CE30E9439
:10068000280C0E945C0B7B018C0160939401709399
:100690009501809396019093970120E030E04FE719
:1006A00053E40E94C80A20E030E048EC52E40E9483
:1006B000280C6093A8017093A9018093AA019093DC
:1006C000AB01C801B70120E030E04FE753E40E94DE
:1006D000240C18162CF480E090E0AFE7B3E41DC0C2
:1006E000C801B70120E030E040E050E00E94C40AB9
:1006F00088232CF480E090E0A0E0B0E00EC0C801B8
:10070000B70120E030E040E85FE30E94C40A88239C
:1007100064F480E090E0A0E8BFE3809394019093BC
:100720009501A0939601B093970160919401709107
:10073000950180919601909197010E94300B67BDC1
:100740001F910F91FF90EF9008952F923F924F923B
:100750005F926F927F928F929F92AF92BF92CF9251
:10076000DF92EF92FF920F931F93DF93CF9300D00E
:1007700000D0CDB7DEB77B018C0159016A0120E0C2
:1007800030E040EF51E40E94C40A8823E9F48FE886
:1007900092ECA5E7BDE38093800190938101A09343
:1007A0008201B093830180E090E0A0E0BFE38093FA
:1007B0007C0190937D01A0937E01B0937F018FE631
:1007C00092E1A3E8BAE357C0C801B70120E030E0E6
:1007D00040E752E40E94C40A8823E9F48DEC9CECC3
:1007E000ACECBCE38093800190938101A0938201E3
:1007F000B09383018AE999E9A9E1BEE380937C0182
:1008000090937D01A0937E01B0937F018FE692E1EA
:10081000A3E0BAE330C0C801B70120E030E044E310
:1008200053E40E94C40A882351F0C801B70120E0B4
:1008300030E048EC53E40E94C40A882321F58DEC93
:100840009CECACE4BEE38093800190938101A09383
:100850008201B093830180E090E0A0E0BFE3809349
:100860007C0190937D01A0937E01B0937F018AE08B
:1008700097EDA3EABBE38093780190937901A0936D
:100880007A01B0937B01C801B701A60195010E94CE
:100890005F0A60936C0170936D0180936E01909379
:1008A0006F0160916C0170916D0180916E0190916A
:1008B0006F01209168013091690140916A01509166
:1008C0006B010E945F0A60937401709375018093BD
:1008D0007601909377016091700170917101809120
:1008E00072019091730120916C0130916D014091E2
:1008F0006E0150916F010E94600A609370017093C5
:1009000071018093720190937301609180017091E5
:100910008101809182019091830120916C0130913D
:100920006D0140916E0150916F01A0907801B090DF
:100930007901C0907A01D0907B0160907001709035
:100940007101809072019090730120907C01309031
:100950007D0140907E0150907F01E0907401F09005
:1009600075010091760110917701E982FA820B837B
:100970001C830E94280C7B018C01C601B501A401D7
:1009800093010E94280C9B01AC01C801B7010E9491
:10099000600A7B018C01C201B10129813A814B813E
:1009A0005C810E94280C9B01AC01C801B7010E9428
:1009B000600A7B018C0160936401709365018093F0
:1009C00066019093670120E030E040E050E00E9433
:1009D000240C18162CF4C801B7010E9430030FC074
:1009E000C801B70120E030E040E050E00E94C40AB6
:1009F00088232CF4C801B70190580E94BB02809153
:100A00006C0190916D01A0916E01B0916F01809386
:100A1000680190936901A0936A01B0936B010F90F4
:100A20000F900F900F90CF91DF911F910F91FF903A
:100A3000EF90DF90CF90BF90AF909F908F907F907E
:100A40006F905F904F903F902F9008951F920F925C
:100A50000FB60F921124EF92FF920F931F932F93D3
:100A60003F934F935F936F937F938F939F93AF9336
:100A7000BF93EF93FF932091A6013091A70180913E
:100A80006101909162012817390781F480918401F6
:100A900090918501A0918601B09187018093880192
:100AA00090938901A0938A01B0938B012091A601B4
:100AB0003091A7018091610190916201C29628173F
:100AC000390731F40E942B021092A7011092A6015F
:100AD0008091A0019091A101892B09F06AC08091B9
:100AE000A2019091A30189559B414CF480915D0135
:100AF00090915E01A0915F01B091600116C080915C
:100B0000A2019091A30189559B41C4F08091A2015B
:100B10009091A301815B96438CF48091590190914F
:100B20005A01A0915B01B0915C0180939C0190936C
:100B30009D01A0939E01B0939F013BC08091A201B3
:100B40009091A301815B964384F08091A2019091E2
:100B5000A301895092454CF4809155019091560122
:100B6000A0915701B0915801E0CF8091A2019091DE
:100B7000A3018950924584F08091A2019091A30134
:100B800081569D464CF48091510190915201A09163
:100B90005301B0915401C9CF8091A2019091A3015A
:100BA00081569D4631F481E090E09093A1018093BD
:100BB000A0018091A0019091A101019709F066C068
:100BC0008091A2019091A30182569D4684F4809168
:100BD000A2019091A3018A5092454CF0809151015D
:100BE00090915201A0915301B09154013DC0809168
:100BF000A2019091A3018A50924584F48091A201B0
:100C00009091A301825B96434CF0809155019091A5
:100C10005601A0915701B091580126C08091A201C0
:100C20009091A301825B964384F48091A2019091FC
:100C3000A3018A559B414CF08091590190915A0132
:100C4000A0915B01B0915C010FC08091A2019091D5
:100C5000A3018A559B4184F480915D0190915E01CE
:100C6000A0915F01B091600180939C0190939D01E0
:100C7000A0939E01B0939F018091A2019091A30146
:100C8000892B21F41092A1011092A0018091A4015E
:100C90009091A5016AE070E00E948B0C892B91F481
:100CA00060919C0170919D0180919E0190919F01A6
:100CB00020918C0130918D0140918E0150918F01D6
:100CC0000E94A5038091A4019091A50164EF71E0B9
:100CD0000E948B0C892BD1F460919C0170919D0135
:100CE00080919E0190919F0120918C0130918D0106
:100CF00040918E0150918F01E090A801F090A901E0
:100D00000091AA011091AB010E947B028091A60183
:100D10009091A70101969093A7018093A6018091DD
:100D2000A4019091A50101969093A5018093A4013F
:100D30008091A2019091A30182569D467CF48091FE
:100D4000A0019091A101892B49F48091A201909179
:100D5000A30101969093A3018093A2018091A20127
:100D60009091A30197FD0FC08091A0019091A101E6
:100D7000019749F48091A2019091A301019790936A
:100D8000A3018093A201FF91EF91BF91AF919F9139
:100D90008F917F916F915F914F913F912F911F9113
:100DA0000F91FF90EF900F900FBE0F901F9018952E
:100DB000A1E1B0E0EEEDF6E00C949E0C3C017F87E3
:100DC0006E876A01FC0117821682838181FD03C050
:100DD0006FEF7FEF6FC39E012F5F3F4F398B288BE3
:100DE000F3012381EE85FF8523FD859123FF81910A
:100DF000FF87EE87882309F45AC3853251F4EE85C4
:100E0000FF8523FD859123FF8191FF87EE87853242
:100E100029F490E0B3010E94D70DE2CF982F10E0A3
:100E2000882499241032B0F49B3269F09C3228F463
:100E3000903251F0933271F40BC09D3239F09033FF
:100E400049F4116028C01260146025C0186023C0E6
:100E5000106121C017FD2AC0892F80538A3078F491
:100E600016FF06C0FAE09F9E902C1124980E13C026
:100E70003AE0839E802C1124880E10620CC09E32B2
:100E800021F416FD14C3106406C09C3611F41068DA
:100E900002C0983659F4EE85FF8523FD959123FF16
:100EA0009191FF87EE87992309F0BCCF892F855454
:100EB000833020F4812F8061905E07C0892F855692
:100EC000833008F09FC1812F8F7E86FD02C076E0BF
:100ED000972E6FE3F62EF822953619F4F0E4FF2AE8
:100EE00007C0963619F420E8F22A02C091109A94AD
:100EF000F7FE0AC03BE3391518F45CE3B52E02C0D7
:100F0000B92CB39427E009C047E0491520F4BB246D
:100F100047E0942EF7CF292DBB24C60104969D8768
:100F20008C87F6016081718182819381AE014F5F70
:100F30005F4F0B2D0E94E90C6C010981202E332498
:100F400000FF04C003FD02C01DE209C0F1FE02C0A3
:100F50001BE205C0F2FC02C010E001C010E2C101BA
:100F60008C709070892BB9F1112311F483E001C0CA
:100F700084E0881510F088240AC0881AF3FC07C0A2
:100F800080E290E0B3010E94D70D8A94C9F7112343
:100F900029F0812F90E0B3010E94D70D23FE03C0FA
:100FA00008E610E00EC00CE610E00BC0E114F104FE
:100FB00009F0805290E0B3010E94D70D0F5F1F4FE0
:100FC00005C0EF2CFF24F0E1EF22FF24F80184910B
:100FD000882361F714C1F7FE12C0BC0C24FE04C0C4
:100FE0008A81813309F4BA941B141CF0BB24B39496
:100FF0002DC0F8E0FB1550F538E0B32E27C0F6FC05
:1010000025C0892D90E08C159D054CF02CEFC21663
:101010002FEFD20624F030E8F32A01C09A949920E9
:1010200049F0E2E0F0E0EC0FFD1FE90DF11D8081D9
:101030008033A1F3F7FE0AC0B92CB394892D90E058
:10104000C816D90614F0992401C09C18F7FC03C0F7
:1010500025E030E009C01C141D041CF021E030E044
:1010600003C096012F5F3F4F112311F02F5F3F4FB9
:10107000992029F0892D90E00196280F391F882D9D
:1010800090E02817390714F0882401C0821A4F2CE9
:101090005524C20189709070892B39F008C080E214
:1010A00090E0B3010E94D70D8A948820C1F71123E4
:1010B00029F0812F90E0B3010E94D70D43FE07C0B5
:1010C00008C080E390E0B3010E94D70D8A94882085
:1010D000C1F7F7FE46C08601D7FE02C000E010E06F
:1010E00076010894E11CF11CE01AF10A41E050E09D
:1010F0004C0F5D1FE40EF51E26014B185108892D7B
:1011000090E0AA24BB24A81AB90A5FEF0F3F150785
:1011100029F48EE290E0B3010E94D70DC016D106EB
:1011200034F0401651061CF4F701808101C080E3C1
:10113000015010400894E11CF11C0A151B052CF00D
:1011400090E0B3010E94D70DE0CF0C151D0539F4D6
:101150009A81963318F4953311F424FE81E390E0DC
:101160004BC08A81813309F00F7E90E0B3010E9469
:10117000D70D9920A1F08EE290E0B3010E94D70D27
:1011800012E0E1E0F0E0EC0FFD1FE10FF11D1F5F49
:10119000808190E0B3010E94D70D9A9491F744FCAE
:1011A00003C085E690E002C085E490E0B3010E94B0
:1011B000D70DD7FC05C0C114D10441F404FF06C00B
:1011C000D094C194D108D3948DE201C08BE290E019
:1011D000B3010E94D70D80E305C08F5F26EF3FEF7C
:1011E000C20ED31E3AE0C316D104BCF790E0B3019F
:1011F0000E94D70DC601C096B3010E94D70DCC84C2
:10120000DD8452C1933631F0933799F0933509F06C
:1012100059C023C0F601808189835E010894A11C16
:10122000B11C22E030E0C20ED31E21E0E22EF12CF0
:1012300012C0F601A080B18016FD03C06FEF7FEFF2
:1012400002C0692D70E022E030E0C20ED31EC5015D
:101250000E94CC0D7C011F7713C0F601A080B180E5
:1012600016FD03C06FEF7FEF02C0692D70E022E032
:1012700030E0C20ED31EC5010E94C10D7C01106872
:1012800013FF07C01BC080E290E0B3010E94D70D9E
:101290008A94882D90E0E816F906A8F30FC0F501AE
:1012A00017FD859117FF81915F0190E0B3010E94C6
:1012B000D70D81108A940894E108F108E114F10433
:1012C00071F7F2C0943611F0993689F517FF08C00E
:1012D000F601208131814281538184E090E00AC08F
:1012E000F601808191819C01442737FD4095542F60
:1012F00082E090E0C80ED91E9FE6F92EF12257FF3A
:1013000009C050954095309521953F4F4F4F5F4F05
:1013100090E8F92ACA01B901AE014F5F5F4F2AE098
:1013200030E00E94270EE82EE889EE1A41C095377A
:1013300021F41F7E2AE030E01CC0197F9F3661F047
:10134000903720F4983509F0B2C00FC0903739F0CB
:10135000983709F0ACC004C028E030E00AC0106142
:1013600014FD146020E130E004C014FD166020E19B
:1013700032E017FF08C0F60160817181828193819C
:1013800044E050E008C0F60180819181BC0180E01A
:1013900090E042E050E0C40ED51EAE014F5F5F4FBB
:1013A0000E94270EE82E5889E51A8FE7F82EF122C1
:1013B000F6FE0BC08EEFF822E91438F4F4FE07C0F5
:1013C000F2FC05C09FEEF92202C01E2D01C0192DAE
:1013D000F4FE0DC0FE01EE0DF11D8081803319F485
:1013E000E9EEFE2208C01F5FF2FE05C003C08F2D8C
:1013F000867809F01F5F0F2DF3FC14C0F0FE0FC0BC
:10140000181510F09E2C0BC09E2C980C911A182DBC
:1014100006C080E290E0B3010E94D70D1F5F18154F
:10142000C0F304C0181510F4811A01C0882404FF09
:101430000FC080E390E0B3010E94D70D02FF1DC0F2
:1014400001FD03C088E790E00EC088E590E00BC086
:10145000802F867891F001FF02C08BE201C080E20C
:10146000F7FC8DE290E0B3010E94D70D06C080E347
:1014700090E0B3010E94D70D9A94E914C0F3EA9466
:10148000E1E0F0E0EC0FFD1FEE0DF11D808190E03A
:10149000B3010E94D70DEE2091F706C080E290E0E4
:1014A000B3010E94D70D8A948820C1F799CCF3012B
:1014B00066817781CB016196E2E10C94BA0C5058B9
:1014C000BB27AA270ED06FC160D130F065D120F0C4
:1014D00031F49F3F11F41EF455C10EF4E095E7FB83
:1014E00022C1E92F71D180F3BA176207730784070D
:1014F000950718F071F49EF5A0C10EF4E0950B2E3F
:10150000BA2FA02D0B01B90190010C01CA01A00155
:101510001124FF27591B99F0593F50F4503E68F1B0
:101520001A16F040A22F232F342F4427585FF3CFF1
:10153000469537952795A795F0405395C9F77EF4C2
:101540001F16BA0B620B730B840BBAF09150A1F00B
:10155000FF0FBB1F661F771F881FC2F70EC0BA0F91
:10156000621F731F841F48F4879577956795B79519
:10157000F7959E3F08F0B3CF9395880F08F0992711
:10158000EE0F979587950895AAD008F481E0089505
:101590000CD009C101D140F0F8D030F021F45F3F08
:1015A00019F0C1C051114AC1EDC00ED198F3992371
:1015B000C9F35523B1F3951B550BBB27AA27621717
:1015C0007307840738F09F5F5F4F220F331F441F5C
:1015D000AA1FA9F333D00E2E3AF0E0E830D0915094
:1015E0005040E695001CCAF729D0FE2F27D0660F81
:1015F000771F881FBB1F261737074807AB07B0E8C0
:1016000009F0BB0B802DBF01FF2793585F4F2AF0D5
:101610009E3F510568F087C011C15F3FECF3983ED3
:10162000DCF3869577956795B795F7959F5FC9F732
:10163000880F911D9695879597F90895E1E0660FBB
:10164000771F881FBB1F621773078407BA0720F034
:10165000621B730B840BBA0BEE1F88F7E09508959D
:10166000BBD088F09F5790F0B92F9927B751A0F0C1
:10167000D1F0660F771F881F991F1AF0BA95C9F726
:1016800012C0B13081F0D9D0B1E00895D6C0672F33
:10169000782F8827B85F39F0B93FCCF386957795D6
:1016A0006795B395D9F73EF49095809570956195BF
:1016B0007F4F8F4F9F4F0895A9D080F09F3740F400
:1016C00091110EF0BBC060E070E080E89FEB0895E0
:1016D00026F41B16611D711D811D2BC045C0990F7D
:1016E0000008550FAA0BE0E8FEEF16161706E807EC
:1016F000F907C0F012161306E407F50798F0621B0D
:10170000730B840B950B39F40A2661F0232B242BE1
:10171000252B21F408950A2609F4A140A6958FEF00
:10172000811D811D089597F99F6780E870E060E052
:101730000895882371F4772321F09850872B762F12
:1017400007C0662311F499270DC09051862B70E0D5
:1017500060E02AF09A95660F771F881FDAF7880FE6
:101760009695879597F908959F3F31F0915020F411
:10177000879577956795B795880F911D969587956D
:1017800097F908959FEF80EC089500240A941616A7
:10179000170618060906089500240A94121613065F
:1017A000140605060895092E0394000C11F48823ED
:1017B00052F0BB0F40F4BF2B11F460FF04C06F5F09
:1017C0007F4F8F4F9F4F089557FD9058440F551FDF
:1017D00059F05F3F71F04795880F97FB991F61F0B3
:1017E0009F3F79F087950895121613061406551F2A
:1017F000F2CF4695F1DF08C0161617061806991F96
:10180000F1CF86957105610508940895E5DFA0F094
:10181000BEE7B91788F4BB279F3860F41616B11DD0
:10182000672F782F8827985FF7CF869577956795EC
:10183000B11D93959639C8F30895E894BB276627A0
:101840007727CB0197F908954ADF08F48FEF0895C1
:101850000BD0A9CF9ADF28F09FDF18F0952309F06D
:1018600062CF90CF1124EACFAFDFA0F3959FD1F3E1
:10187000950F50E0551F629FF001729FBB27F00D3E
:10188000B11D639FAA27F00DB11DAA1F649F662793
:10189000B00DA11D661F829F2227B00DA11D621FE2
:1018A000739FB00DA11D621F839FA00D611D221F9C
:1018B000749F3327A00D611D231F849F600D211D80
:1018C000822F762F6A2F11249F5750408AF0E1F023
:1018D00088234AF0EE0FFF1FBB1F661F771F881F6C
:1018E00091505040A9F79E3F510570F01CCFA6CFF4
:1018F0005F3FECF3983EDCF3869577956795B79557
:10190000F795E7959F5FC1F7FE2B880F911D969580
:10191000879597F9089597FB092E07260AD077FD3A
:1019200004D043D006D000201AF4709561957F4F03
:101930000895F6F7909581959F4F08952F923F92C5
:101940004F925F926F927F928F929F92AF92BF92CF
:10195000CF92DF92EF92FF920F931F93CF93DF937B
:10196000CDB7DEB7CA1BDB0B0FB6F894DEBF0FBED8
:10197000CDBF09942A88398848885F846E847D8425
:101980008C849B84AA84B984C884DF80EE80FD8027
:101990000C811B81AA81B981CE0FD11D0FB6F8949D
:1019A000DEBF0FBECDBFED010895AA1BBB1B51E1E9
:1019B00007C0AA1FBB1FA617B70710F0A61BB70BBF
:1019C000881F991F5A95A9F780959095BC01CD0164
:1019D0000895283008F027E03327DA01990F311DE8
:1019E00087FD916000966105710539F432602E5FC4
:1019F0003D9330E32A95E1F708959F3F30F080381A
:101A00007105610509F03C5F3C5F3D93913008F042
:101A10008068911DDF93CF931F930F93FF92EF92F6
:101A2000192F987F9695E92F96959695E90FFF27A0
:101A3000E653FF4F99273327EE24FF24A701E70140
:101A400005900894079428F4360FE71EF81E491FE6
:101A5000511D660F771F881F991F0694A1F70590E7
:101A6000079428F4E70EF81E491F561FC11D770F73
:101A7000881F991F661F0694A1F70590079428F404
:101A8000F80E491F561FC71FD11D880F991F661FCB
:101A9000771F0694A1F70590079420F4490F561F6D
:101AA000C71FD81F990F661F771F881F0694A9F7B5
:101AB00084911095177041F0D695C7955795479525
:101AC000F794E7941A95C1F7E0E7F0E06894159071
:101AD000159135916591959105907FE27395E11887
:101AE000F10A430B560BC90BD009C0F7E10CF11EEC
:101AF000431F561FC91FD01D7EF4703311F48A9501
:101B0000E6CFE894015030F0080F0AF400270217DE
:101B100008F4202F2395022F7A3328F079E37D9360
:101B20002A95E9F710C07D932A9589F60694979532
:101B30006795379517951794E118F10A430B560BE3
:101B4000C90BD00998F023957E9173957A3308F0EC
:101B500070E37C932013B8F77E9170617D9330F031
:101B6000839571E37D9370E32A95E1F71124EF905B
:101B7000FF900F911F91CF91DF91992787FD90954D
:101B80000895FC010590615070400110D8F78095D0
:101B900090958E0F9F1F0895FC0161507040019039
:101BA0000110D8F7809590958E0F9F1F08950F9381
:101BB0001F93CF93DF938C01EB018B8181FF1BC0BF
:101BC00082FF0DC02E813F818C819D8128173907AE
:101BD00064F4E881F9810193F983E88306C0E8851C
:101BE000F985802F0995892B31F48E819F8101968B
:101BF0009F838E8302C00FEF1FEFC801DF91CF914B
:101C00001F910F910895AEE0B0E0E9E0FEE00C9482
:101C1000AC0C0D891E8986E08C831A8309838FEFB3
:101C20009FE79E838D839E01275E3F4FCE010196E5
:101C30006F89788DA9010E94D8062F813885020FFF
:101C4000131FF80110822E96E4E00C94C80CFA01E0
:101C5000AA27283051F1203181F1E8946F936E7FEB
:101C60006E5F7F4F8F4F9F4FAF4FB1E03ED0B4E0DC
:101C70003CD0670F781F891F9A1FA11D680F791F1D
:101C80008A1F911DA11D6A0F711D811D911DA11D2E
:101C900020D009F468943F912AE0269F112430193E
:101CA000305D3193DEF6CF010895462F4770405DD9
:101CB0004193B3E00FD0C9F7F6CF462F4F70405D88
:101CC0004A3318F0495D31FD4052419302D0A9F7E3
:101CD000EACFB4E0A6959795879577956795BA95DD
:101CE000C9F700976105710508959B01AC010A2EA3
:101CF00006945795479537952795BA95C9F7620F7A
:0E1D0000731F841F951FA01D0895F894FFCF38
:101D0E000A0A5461726765742053706565642028F1
:101D1E0052504D29203D2025302E31660A0A0D43A2
:101D2E00757272656E74205370656564202852500A
:101D3E004D29203D2025302E31660A0A0D50574D73
:101D4E00203D2025302E31662025250A0A0A0A0D4F
:101D5E00000000C84300003443000070420000F051
:041D6E00410100002F
:00000001FF
